{
  "_format": "hh-sol-artifact-1",
  "contractName": "NFT",
  "sourceName": "src/backend/contracts/NFT.sol",
  "abi": [
    {
      "inputs": [],
      "stateMutability": "nonpayable",
      "type": "constructor"
    },
    {
      "anonymous": false,
      "inputs": [
        {
          "indexed": true,
          "internalType": "address",
          "name": "owner",
          "type": "address"
        },
        {
          "indexed": true,
          "internalType": "address",
          "name": "approved",
          "type": "address"
        },
        {
          "indexed": true,
          "internalType": "uint256",
          "name": "tokenId",
          "type": "uint256"
        }
      ],
      "name": "Approval",
      "type": "event"
    },
    {
      "anonymous": false,
      "inputs": [
        {
          "indexed": true,
          "internalType": "address",
          "name": "owner",
          "type": "address"
        },
        {
          "indexed": true,
          "internalType": "address",
          "name": "operator",
          "type": "address"
        },
        {
          "indexed": false,
          "internalType": "bool",
          "name": "approved",
          "type": "bool"
        }
      ],
      "name": "ApprovalForAll",
      "type": "event"
    },
    {
      "anonymous": false,
      "inputs": [
        {
          "indexed": true,
          "internalType": "address",
          "name": "from",
          "type": "address"
        },
        {
          "indexed": true,
          "internalType": "address",
          "name": "to",
          "type": "address"
        },
        {
          "indexed": true,
          "internalType": "uint256",
          "name": "tokenId",
          "type": "uint256"
        }
      ],
      "name": "Transfer",
      "type": "event"
    },
    {
      "inputs": [
        {
          "internalType": "address",
          "name": "to",
          "type": "address"
        },
        {
          "internalType": "uint256",
          "name": "tokenId",
          "type": "uint256"
        }
      ],
      "name": "approve",
      "outputs": [],
      "stateMutability": "nonpayable",
      "type": "function"
    },
    {
      "inputs": [
        {
          "internalType": "address",
          "name": "owner",
          "type": "address"
        }
      ],
      "name": "balanceOf",
      "outputs": [
        {
          "internalType": "uint256",
          "name": "",
          "type": "uint256"
        }
      ],
      "stateMutability": "view",
      "type": "function"
    },
    {
      "inputs": [
        {
          "internalType": "uint256",
          "name": "tokenId",
          "type": "uint256"
        }
      ],
      "name": "getApproved",
      "outputs": [
        {
          "internalType": "address",
          "name": "",
          "type": "address"
        }
      ],
      "stateMutability": "view",
      "type": "function"
    },
    {
      "inputs": [
        {
          "internalType": "address",
          "name": "owner",
          "type": "address"
        },
        {
          "internalType": "address",
          "name": "operator",
          "type": "address"
        }
      ],
      "name": "isApprovedForAll",
      "outputs": [
        {
          "internalType": "bool",
          "name": "",
          "type": "bool"
        }
      ],
      "stateMutability": "view",
      "type": "function"
    },
    {
      "inputs": [
        {
          "internalType": "string",
          "name": "_tokenURI",
          "type": "string"
        }
      ],
      "name": "mint",
      "outputs": [
        {
          "internalType": "uint256",
          "name": "",
          "type": "uint256"
        }
      ],
      "stateMutability": "nonpayable",
      "type": "function"
    },
    {
      "inputs": [],
      "name": "name",
      "outputs": [
        {
          "internalType": "string",
          "name": "",
          "type": "string"
        }
      ],
      "stateMutability": "view",
      "type": "function"
    },
    {
      "inputs": [
        {
          "internalType": "uint256",
          "name": "tokenId",
          "type": "uint256"
        }
      ],
      "name": "ownerOf",
      "outputs": [
        {
          "internalType": "address",
          "name": "",
          "type": "address"
        }
      ],
      "stateMutability": "view",
      "type": "function"
    },
    {
      "inputs": [
        {
          "internalType": "address",
          "name": "from",
          "type": "address"
        },
        {
          "internalType": "address",
          "name": "to",
          "type": "address"
        },
        {
          "internalType": "uint256",
          "name": "tokenId",
          "type": "uint256"
        }
      ],
      "name": "safeTransferFrom",
      "outputs": [],
      "stateMutability": "nonpayable",
      "type": "function"
    },
    {
      "inputs": [
        {
          "internalType": "address",
          "name": "from",
          "type": "address"
        },
        {
          "internalType": "address",
          "name": "to",
          "type": "address"
        },
        {
          "internalType": "uint256",
          "name": "tokenId",
          "type": "uint256"
        },
        {
          "internalType": "bytes",
          "name": "_data",
          "type": "bytes"
        }
      ],
      "name": "safeTransferFrom",
      "outputs": [],
      "stateMutability": "nonpayable",
      "type": "function"
    },
    {
      "inputs": [
        {
          "internalType": "address",
          "name": "operator",
          "type": "address"
        },
        {
          "internalType": "bool",
          "name": "approved",
          "type": "bool"
        }
      ],
      "name": "setApprovalForAll",
      "outputs": [],
      "stateMutability": "nonpayable",
      "type": "function"
    },
    {
      "inputs": [
        {
          "internalType": "bytes4",
          "name": "interfaceId",
          "type": "bytes4"
        }
      ],
      "name": "supportsInterface",
      "outputs": [
        {
          "internalType": "bool",
          "name": "",
          "type": "bool"
        }
      ],
      "stateMutability": "view",
      "type": "function"
    },
    {
      "inputs": [],
      "name": "symbol",
      "outputs": [
        {
          "internalType": "string",
          "name": "",
          "type": "string"
        }
      ],
      "stateMutability": "view",
      "type": "function"
    },
    {
      "inputs": [],
      "name": "tokenCount",
      "outputs": [
        {
          "internalType": "uint256",
          "name": "",
          "type": "uint256"
        }
      ],
      "stateMutability": "view",
      "type": "function"
    },
    {
      "inputs": [
        {
          "internalType": "uint256",
          "name": "tokenId",
          "type": "uint256"
        }
      ],
      "name": "tokenURI",
      "outputs": [
        {
          "internalType": "string",
          "name": "",
          "type": "string"
        }
      ],
      "stateMutability": "view",
      "type": "function"
    },
    {
      "inputs": [
        {
          "internalType": "address",
          "name": "from",
          "type": "address"
        },
        {
          "internalType": "address",
          "name": "to",
          "type": "address"
        },
        {
          "internalType": "uint256",
          "name": "tokenId",
          "type": "uint256"
        }
      ],
      "name": "transferFrom",
      "outputs": [],
      "stateMutability": "nonpayable",
      "type": "function"
    }
  ],
  "bytecode": "0x60806040523480156200001157600080fd5b506040518060400160405280600881526020017f44617070204e46540000000000000000000000000000000000000000000000008152506040518060400160405280600481526020017f4441505000000000000000000000000000000000000000000000000000000000815250816000908051906020019062000096929190620000b8565b508060019080519060200190620000af929190620000b8565b505050620001cc565b828054620000c69062000197565b90600052602060002090601f016020900481019282620000ea576000855562000136565b82601f106200010557805160ff191683800117855562000136565b8280016001018555821562000136579182015b828111156200013557825182559160200191906001019062000118565b5b50905062000145919062000149565b5090565b5b80821115620001645760008160009055506001016200014a565b5090565b7f4e487b7100000000000000000000000000000000000000000000000000000000600052602260045260246000fd5b60006002820490506001821680620001b057607f821691505b602082108103620001c657620001c562000168565b5b50919050565b612c2c80620001dc6000396000f3fe608060405234801561001057600080fd5b50600436106100f55760003560e01c806370a0823111610097578063b88d4fde11610066578063b88d4fde14610284578063c87b56dd146102a0578063d85d3d27146102d0578063e985e9c514610300576100f5565b806370a08231146101fc57806395d89b411461022c5780639f181b5e1461024a578063a22cb46514610268576100f5565b8063095ea7b3116100d3578063095ea7b31461017857806323b872dd1461019457806342842e0e146101b05780636352211e146101cc576100f5565b806301ffc9a7146100fa57806306fdde031461012a578063081812fc14610148575b600080fd5b610114600480360381019061010f91906119a3565b610330565b60405161012191906119eb565b60405180910390f35b610132610412565b60405161013f9190611a9f565b60405180910390f35b610162600480360381019061015d9190611af7565b6104a4565b60405161016f9190611b65565b60405180910390f35b610192600480360381019061018d9190611bac565b610529565b005b6101ae60048036038101906101a99190611bec565b610640565b005b6101ca60048036038101906101c59190611bec565b6106a0565b005b6101e660048036038101906101e19190611af7565b6106c0565b6040516101f39190611b65565b60405180910390f35b61021660048036038101906102119190611c3f565b610771565b6040516102239190611c7b565b60405180910390f35b610234610828565b6040516102419190611a9f565b60405180910390f35b6102526108ba565b60405161025f9190611c7b565b60405180910390f35b610282600480360381019061027d9190611cc2565b6108c0565b005b61029e60048036038101906102999190611e37565b6108d6565b005b6102ba60048036038101906102b59190611af7565b610938565b6040516102c79190611a9f565b60405180910390f35b6102ea60048036038101906102e59190611f5b565b610a89565b6040516102f79190611c7b565b60405180910390f35b61031a60048036038101906103159190611fa4565b610ac5565b60405161032791906119eb565b60405180910390f35b60007f80ac58cd000000000000000000000000000000000000000000000000000000007bffffffffffffffffffffffffffffffffffffffffffffffffffffffff1916827bffffffffffffffffffffffffffffffffffffffffffffffffffffffff191614806103fb57507f5b5e139f000000000000000000000000000000000000000000000000000000007bffffffffffffffffffffffffffffffffffffffffffffffffffffffff1916827bffffffffffffffffffffffffffffffffffffffffffffffffffffffff1916145b8061040b575061040a82610b59565b5b9050919050565b60606000805461042190612013565b80601f016020809104026020016040519081016040528092919081815260200182805461044d90612013565b801561049a5780601f1061046f5761010080835404028352916020019161049a565b820191906000526020600020905b81548152906001019060200180831161047d57829003601f168201915b5050505050905090565b60006104af82610bc3565b6104ee576040517f08c379a00000000000000000000000000000000000000000000000000000000081526004016104e5906120b6565b60405180910390fd5b6004600083815260200190815260200160002060009054906101000a900473ffffffffffffffffffffffffffffffffffffffff169050919050565b6000610534826106c0565b90508073ffffffffffffffffffffffffffffffffffffffff168373ffffffffffffffffffffffffffffffffffffffff16036105a4576040517f08c379a000000000000000000000000000000000000000000000000000000000815260040161059b90612148565b60405180910390fd5b8073ffffffffffffffffffffffffffffffffffffffff166105c3610c2f565b73ffffffffffffffffffffffffffffffffffffffff1614806105f257506105f1816105ec610c2f565b610ac5565b5b610631576040517f08c379a0000000000000000000000000000000000000000000000000000000008152600401610628906121da565b60405180910390fd5b61063b8383610c37565b505050565b61065161064b610c2f565b82610cf0565b610690576040517f08c379a00000000000000000000000000000000000000000000000000000000081526004016106879061226c565b60405180910390fd5b61069b838383610dce565b505050565b6106bb838383604051806020016040528060008152506108d6565b505050565b6000806002600084815260200190815260200160002060009054906101000a900473ffffffffffffffffffffffffffffffffffffffff169050600073ffffffffffffffffffffffffffffffffffffffff168173ffffffffffffffffffffffffffffffffffffffff1603610768576040517f08c379a000000000000000000000000000000000000000000000000000000000815260040161075f906122fe565b60405180910390fd5b80915050919050565b60008073ffffffffffffffffffffffffffffffffffffffff168273ffffffffffffffffffffffffffffffffffffffff16036107e1576040517f08c379a00000000000000000000000000000000000000000000000000000000081526004016107d890612390565b60405180910390fd5b600360008373ffffffffffffffffffffffffffffffffffffffff1673ffffffffffffffffffffffffffffffffffffffff168152602001908152602001600020549050919050565b60606001805461083790612013565b80601f016020809104026020016040519081016040528092919081815260200182805461086390612013565b80156108b05780601f10610885576101008083540402835291602001916108b0565b820191906000526020600020905b81548152906001019060200180831161089357829003601f168201915b5050505050905090565b60075481565b6108d26108cb610c2f565b8383611034565b5050565b6108e76108e1610c2f565b83610cf0565b610926576040517f08c379a000000000000000000000000000000000000000000000000000000000815260040161091d9061226c565b60405180910390fd5b610932848484846111a0565b50505050565b606061094382610bc3565b610982576040517f08c379a000000000000000000000000000000000000000000000000000000000815260040161097990612422565b60405180910390fd5b60006006600084815260200190815260200160002080546109a290612013565b80601f01602080910402602001604051908101604052809291908181526020018280546109ce90612013565b8015610a1b5780601f106109f057610100808354040283529160200191610a1b565b820191906000526020600020905b8154815290600101906020018083116109fe57829003601f168201915b505050505090506000610a2c6111fc565b90506000815103610a41578192505050610a84565b600082511115610a76578082604051602001610a5e92919061247e565b60405160208183030381529060405292505050610a84565b610a7f84611213565b925050505b919050565b600060076000815480929190610a9e906124d1565b9190505550610aaf336007546112ba565b610abb600754836112d8565b6007549050919050565b6000600560008473ffffffffffffffffffffffffffffffffffffffff1673ffffffffffffffffffffffffffffffffffffffff16815260200190815260200160002060008373ffffffffffffffffffffffffffffffffffffffff1673ffffffffffffffffffffffffffffffffffffffff16815260200190815260200160002060009054906101000a900460ff16905092915050565b60007f01ffc9a7000000000000000000000000000000000000000000000000000000007bffffffffffffffffffffffffffffffffffffffffffffffffffffffff1916827bffffffffffffffffffffffffffffffffffffffffffffffffffffffff1916149050919050565b60008073ffffffffffffffffffffffffffffffffffffffff166002600084815260200190815260200160002060009054906101000a900473ffffffffffffffffffffffffffffffffffffffff1673ffffffffffffffffffffffffffffffffffffffff1614159050919050565b600033905090565b816004600083815260200190815260200160002060006101000a81548173ffffffffffffffffffffffffffffffffffffffff021916908373ffffffffffffffffffffffffffffffffffffffff160217905550808273ffffffffffffffffffffffffffffffffffffffff16610caa836106c0565b73ffffffffffffffffffffffffffffffffffffffff167f8c5be1e5ebec7d5bd14f71427d1e84f3dd0314c0f7b2291e5b200ac8c7c3b92560405160405180910390a45050565b6000610cfb82610bc3565b610d3a576040517f08c379a0000000000000000000000000000000000000000000000000000000008152600401610d319061258b565b60405180910390fd5b6000610d45836106c0565b90508073ffffffffffffffffffffffffffffffffffffffff168473ffffffffffffffffffffffffffffffffffffffff161480610d875750610d868185610ac5565b5b80610dc557508373ffffffffffffffffffffffffffffffffffffffff16610dad846104a4565b73ffffffffffffffffffffffffffffffffffffffff16145b91505092915050565b8273ffffffffffffffffffffffffffffffffffffffff16610dee826106c0565b73ffffffffffffffffffffffffffffffffffffffff1614610e44576040517f08c379a0000000000000000000000000000000000000000000000000000000008152600401610e3b9061261d565b60405180910390fd5b600073ffffffffffffffffffffffffffffffffffffffff168273ffffffffffffffffffffffffffffffffffffffff1603610eb3576040517f08c379a0000000000000000000000000000000000000000000000000000000008152600401610eaa906126af565b60405180910390fd5b610ebe83838361134c565b610ec9600082610c37565b6001600360008573ffffffffffffffffffffffffffffffffffffffff1673ffffffffffffffffffffffffffffffffffffffff1681526020019081526020016000206000828254610f1991906126cf565b925050819055506001600360008473ffffffffffffffffffffffffffffffffffffffff1673ffffffffffffffffffffffffffffffffffffffff1681526020019081526020016000206000828254610f709190612703565b92505081905550816002600083815260200190815260200160002060006101000a81548173ffffffffffffffffffffffffffffffffffffffff021916908373ffffffffffffffffffffffffffffffffffffffff160217905550808273ffffffffffffffffffffffffffffffffffffffff168473ffffffffffffffffffffffffffffffffffffffff167fddf252ad1be2c89b69c2b068fc378daa952ba7f163c4a11628f55a4df523b3ef60405160405180910390a461102f838383611351565b505050565b8173ffffffffffffffffffffffffffffffffffffffff168373ffffffffffffffffffffffffffffffffffffffff16036110a2576040517f08c379a0000000000000000000000000000000000000000000000000000000008152600401611099906127a5565b60405180910390fd5b80600560008573ffffffffffffffffffffffffffffffffffffffff1673ffffffffffffffffffffffffffffffffffffffff16815260200190815260200160002060008473ffffffffffffffffffffffffffffffffffffffff1673ffffffffffffffffffffffffffffffffffffffff16815260200190815260200160002060006101000a81548160ff0219169083151502179055508173ffffffffffffffffffffffffffffffffffffffff168373ffffffffffffffffffffffffffffffffffffffff167f17307eab39ab6107e8899845ad3d59bd9653f200f220920489ca2b5937696c318360405161119391906119eb565b60405180910390a3505050565b6111ab848484610dce565b6111b784848484611356565b6111f6576040517f08c379a00000000000000000000000000000000000000000000000000000000081526004016111ed90612837565b60405180910390fd5b50505050565b606060405180602001604052806000815250905090565b606061121e82610bc3565b61125d576040517f08c379a0000000000000000000000000000000000000000000000000000000008152600401611254906128c9565b60405180910390fd5b60006112676111fc565b9050600081511161128757604051806020016040528060008152506112b2565b80611291846114dd565b6040516020016112a292919061247e565b6040516020818303038152906040525b915050919050565b6112d482826040518060200160405280600081525061163d565b5050565b6112e182610bc3565b611320576040517f08c379a00000000000000000000000000000000000000000000000000000000081526004016113179061295b565b60405180910390fd5b80600660008481526020019081526020016000209080519060200190611347929190611894565b505050565b505050565b505050565b60006113778473ffffffffffffffffffffffffffffffffffffffff16611698565b156114d0578373ffffffffffffffffffffffffffffffffffffffff1663150b7a026113a0610c2f565b8786866040518563ffffffff1660e01b81526004016113c294939291906129d0565b6020604051808303816000875af19250505080156113fe57506040513d601f19601f820116820180604052508101906113fb9190612a31565b60015b611480573d806000811461142e576040519150601f19603f3d011682016040523d82523d6000602084013e611433565b606091505b506000815103611478576040517f08c379a000000000000000000000000000000000000000000000000000000000815260040161146f90612837565b60405180910390fd5b805181602001fd5b63150b7a0260e01b7bffffffffffffffffffffffffffffffffffffffffffffffffffffffff1916817bffffffffffffffffffffffffffffffffffffffffffffffffffffffff1916149150506114d5565b600190505b949350505050565b606060008203611524576040518060400160405280600181526020017f30000000000000000000000000000000000000000000000000000000000000008152509050611638565b600082905060005b6000821461155657808061153f906124d1565b915050600a8261154f9190612a8d565b915061152c565b60008167ffffffffffffffff81111561157257611571611d0c565b5b6040519080825280601f01601f1916602001820160405280156115a45781602001600182028036833780820191505090505b5090505b60008514611631576001826115bd91906126cf565b9150600a856115cc9190612abe565b60306115d89190612703565b60f81b8183815181106115ee576115ed612aef565b5b60200101907effffffffffffffffffffffffffffffffffffffffffffffffffffffffffffff1916908160001a905350600a8561162a9190612a8d565b94506115a8565b8093505050505b919050565b61164783836116bb565b6116546000848484611356565b611693576040517f08c379a000000000000000000000000000000000000000000000000000000000815260040161168a90612837565b60405180910390fd5b505050565b6000808273ffffffffffffffffffffffffffffffffffffffff163b119050919050565b600073ffffffffffffffffffffffffffffffffffffffff168273ffffffffffffffffffffffffffffffffffffffff160361172a576040517f08c379a000000000000000000000000000000000000000000000000000000000815260040161172190612b6a565b60405180910390fd5b61173381610bc3565b15611773576040517f08c379a000000000000000000000000000000000000000000000000000000000815260040161176a90612bd6565b60405180910390fd5b61177f6000838361134c565b6001600360008473ffffffffffffffffffffffffffffffffffffffff1673ffffffffffffffffffffffffffffffffffffffff16815260200190815260200160002060008282546117cf9190612703565b92505081905550816002600083815260200190815260200160002060006101000a81548173ffffffffffffffffffffffffffffffffffffffff021916908373ffffffffffffffffffffffffffffffffffffffff160217905550808273ffffffffffffffffffffffffffffffffffffffff16600073ffffffffffffffffffffffffffffffffffffffff167fddf252ad1be2c89b69c2b068fc378daa952ba7f163c4a11628f55a4df523b3ef60405160405180910390a461189060008383611351565b5050565b8280546118a090612013565b90600052602060002090601f0160209004810192826118c25760008555611909565b82601f106118db57805160ff1916838001178555611909565b82800160010185558215611909579182015b828111156119085782518255916020019190600101906118ed565b5b509050611916919061191a565b5090565b5b8082111561193357600081600090555060010161191b565b5090565b6000604051905090565b600080fd5b600080fd5b60007fffffffff0000000000000000000000000000000000000000000000000000000082169050919050565b6119808161194b565b811461198b57600080fd5b50565b60008135905061199d81611977565b92915050565b6000602082840312156119b9576119b8611941565b5b60006119c78482850161198e565b91505092915050565b60008115159050919050565b6119e5816119d0565b82525050565b6000602082019050611a0060008301846119dc565b92915050565b600081519050919050565b600082825260208201905092915050565b60005b83811015611a40578082015181840152602081019050611a25565b83811115611a4f576000848401525b50505050565b6000601f19601f8301169050919050565b6000611a7182611a06565b611a7b8185611a11565b9350611a8b818560208601611a22565b611a9481611a55565b840191505092915050565b60006020820190508181036000830152611ab98184611a66565b905092915050565b6000819050919050565b611ad481611ac1565b8114611adf57600080fd5b50565b600081359050611af181611acb565b92915050565b600060208284031215611b0d57611b0c611941565b5b6000611b1b84828501611ae2565b91505092915050565b600073ffffffffffffffffffffffffffffffffffffffff82169050919050565b6000611b4f82611b24565b9050919050565b611b5f81611b44565b82525050565b6000602082019050611b7a6000830184611b56565b92915050565b611b8981611b44565b8114611b9457600080fd5b50565b600081359050611ba681611b80565b92915050565b60008060408385031215611bc357611bc2611941565b5b6000611bd185828601611b97565b9250506020611be285828601611ae2565b9150509250929050565b600080600060608486031215611c0557611c04611941565b5b6000611c1386828701611b97565b9350506020611c2486828701611b97565b9250506040611c3586828701611ae2565b9150509250925092565b600060208284031215611c5557611c54611941565b5b6000611c6384828501611b97565b91505092915050565b611c7581611ac1565b82525050565b6000602082019050611c906000830184611c6c565b92915050565b611c9f816119d0565b8114611caa57600080fd5b50565b600081359050611cbc81611c96565b92915050565b60008060408385031215611cd957611cd8611941565b5b6000611ce785828601611b97565b9250506020611cf885828601611cad565b9150509250929050565b600080fd5b600080fd5b7f4e487b7100000000000000000000000000000000000000000000000000000000600052604160045260246000fd5b611d4482611a55565b810181811067ffffffffffffffff82111715611d6357611d62611d0c565b5b80604052505050565b6000611d76611937565b9050611d828282611d3b565b919050565b600067ffffffffffffffff821115611da257611da1611d0c565b5b611dab82611a55565b9050602081019050919050565b82818337600083830152505050565b6000611dda611dd584611d87565b611d6c565b905082815260208101848484011115611df657611df5611d07565b5b611e01848285611db8565b509392505050565b600082601f830112611e1e57611e1d611d02565b5b8135611e2e848260208601611dc7565b91505092915050565b60008060008060808587031215611e5157611e50611941565b5b6000611e5f87828801611b97565b9450506020611e7087828801611b97565b9350506040611e8187828801611ae2565b925050606085013567ffffffffffffffff811115611ea257611ea1611946565b5b611eae87828801611e09565b91505092959194509250565b600067ffffffffffffffff821115611ed557611ed4611d0c565b5b611ede82611a55565b9050602081019050919050565b6000611efe611ef984611eba565b611d6c565b905082815260208101848484011115611f1a57611f19611d07565b5b611f25848285611db8565b509392505050565b600082601f830112611f4257611f41611d02565b5b8135611f52848260208601611eeb565b91505092915050565b600060208284031215611f7157611f70611941565b5b600082013567ffffffffffffffff811115611f8f57611f8e611946565b5b611f9b84828501611f2d565b91505092915050565b60008060408385031215611fbb57611fba611941565b5b6000611fc985828601611b97565b9250506020611fda85828601611b97565b9150509250929050565b7f4e487b7100000000000000000000000000000000000000000000000000000000600052602260045260246000fd5b6000600282049050600182168061202b57607f821691505b60208210810361203e5761203d611fe4565b5b50919050565b7f4552433732313a20617070726f76656420717565727920666f72206e6f6e657860008201527f697374656e7420746f6b656e0000000000000000000000000000000000000000602082015250565b60006120a0602c83611a11565b91506120ab82612044565b604082019050919050565b600060208201905081810360008301526120cf81612093565b9050919050565b7f4552433732313a20617070726f76616c20746f2063757272656e74206f776e6560008201527f7200000000000000000000000000000000000000000000000000000000000000602082015250565b6000612132602183611a11565b915061213d826120d6565b604082019050919050565b6000602082019050818103600083015261216181612125565b9050919050565b7f4552433732313a20617070726f76652063616c6c6572206973206e6f74206f7760008201527f6e6572206e6f7220617070726f76656420666f7220616c6c0000000000000000602082015250565b60006121c4603883611a11565b91506121cf82612168565b604082019050919050565b600060208201905081810360008301526121f3816121b7565b9050919050565b7f4552433732313a207472616e736665722063616c6c6572206973206e6f74206f60008201527f776e6572206e6f7220617070726f766564000000000000000000000000000000602082015250565b6000612256603183611a11565b9150612261826121fa565b604082019050919050565b6000602082019050818103600083015261228581612249565b9050919050565b7f4552433732313a206f776e657220717565727920666f72206e6f6e657869737460008201527f656e7420746f6b656e0000000000000000000000000000000000000000000000602082015250565b60006122e8602983611a11565b91506122f38261228c565b604082019050919050565b60006020820190508181036000830152612317816122db565b9050919050565b7f4552433732313a2062616c616e636520717565727920666f7220746865207a6560008201527f726f206164647265737300000000000000000000000000000000000000000000602082015250565b600061237a602a83611a11565b91506123858261231e565b604082019050919050565b600060208201905081810360008301526123a98161236d565b9050919050565b7f45524337323155524953746f726167653a2055524920717565727920666f722060008201527f6e6f6e6578697374656e7420746f6b656e000000000000000000000000000000602082015250565b600061240c603183611a11565b9150612417826123b0565b604082019050919050565b6000602082019050818103600083015261243b816123ff565b9050919050565b600081905092915050565b600061245882611a06565b6124628185612442565b9350612472818560208601611a22565b80840191505092915050565b600061248a828561244d565b9150612496828461244d565b91508190509392505050565b7f4e487b7100000000000000000000000000000000000000000000000000000000600052601160045260246000fd5b60006124dc82611ac1565b91507fffffffffffffffffffffffffffffffffffffffffffffffffffffffffffffffff820361250e5761250d6124a2565b5b600182019050919050565b7f4552433732313a206f70657261746f7220717565727920666f72206e6f6e657860008201527f697374656e7420746f6b656e0000000000000000000000000000000000000000602082015250565b6000612575602c83611a11565b915061258082612519565b604082019050919050565b600060208201905081810360008301526125a481612568565b9050919050565b7f4552433732313a207472616e736665722066726f6d20696e636f72726563742060008201527f6f776e6572000000000000000000000000000000000000000000000000000000602082015250565b6000612607602583611a11565b9150612612826125ab565b604082019050919050565b60006020820190508181036000830152612636816125fa565b9050919050565b7f4552433732313a207472616e7366657220746f20746865207a65726f2061646460008201527f7265737300000000000000000000000000000000000000000000000000000000602082015250565b6000612699602483611a11565b91506126a48261263d565b604082019050919050565b600060208201905081810360008301526126c88161268c565b9050919050565b60006126da82611ac1565b91506126e583611ac1565b9250828210156126f8576126f76124a2565b5b828203905092915050565b600061270e82611ac1565b915061271983611ac1565b9250827fffffffffffffffffffffffffffffffffffffffffffffffffffffffffffffffff0382111561274e5761274d6124a2565b5b828201905092915050565b7f4552433732313a20617070726f766520746f2063616c6c657200000000000000600082015250565b600061278f601983611a11565b915061279a82612759565b602082019050919050565b600060208201905081810360008301526127be81612782565b9050919050565b7f4552433732313a207472616e7366657220746f206e6f6e20455243373231526560008201527f63656976657220696d706c656d656e7465720000000000000000000000000000602082015250565b6000612821603283611a11565b915061282c826127c5565b604082019050919050565b6000602082019050818103600083015261285081612814565b9050919050565b7f4552433732314d657461646174613a2055524920717565727920666f72206e6f60008201527f6e6578697374656e7420746f6b656e0000000000000000000000000000000000602082015250565b60006128b3602f83611a11565b91506128be82612857565b604082019050919050565b600060208201905081810360008301526128e2816128a6565b9050919050565b7f45524337323155524953746f726167653a2055524920736574206f66206e6f6e60008201527f6578697374656e7420746f6b656e000000000000000000000000000000000000602082015250565b6000612945602e83611a11565b9150612950826128e9565b604082019050919050565b6000602082019050818103600083015261297481612938565b9050919050565b600081519050919050565b600082825260208201905092915050565b60006129a28261297b565b6129ac8185612986565b93506129bc818560208601611a22565b6129c581611a55565b840191505092915050565b60006080820190506129e56000830187611b56565b6129f26020830186611b56565b6129ff6040830185611c6c565b8181036060830152612a118184612997565b905095945050505050565b600081519050612a2b81611977565b92915050565b600060208284031215612a4757612a46611941565b5b6000612a5584828501612a1c565b91505092915050565b7f4e487b7100000000000000000000000000000000000000000000000000000000600052601260045260246000fd5b6000612a9882611ac1565b9150612aa383611ac1565b925082612ab357612ab2612a5e565b5b828204905092915050565b6000612ac982611ac1565b9150612ad483611ac1565b925082612ae457612ae3612a5e565b5b828206905092915050565b7f4e487b7100000000000000000000000000000000000000000000000000000000600052603260045260246000fd5b7f4552433732313a206d696e7420746f20746865207a65726f2061646472657373600082015250565b6000612b54602083611a11565b9150612b5f82612b1e565b602082019050919050565b60006020820190508181036000830152612b8381612b47565b9050919050565b7f4552433732313a20746f6b656e20616c7265616479206d696e74656400000000600082015250565b6000612bc0601c83611a11565b9150612bcb82612b8a565b602082019050919050565b60006020820190508181036000830152612bef81612bb3565b905091905056fea26469706673582212203dcf25b3e973958a1794f4615c4e35aa142aae5cd9a2aea007c93bd32e08f60664736f6c634300080e0033",
  "linkReferences": {},
  "deployedLinkReferences": {}
}